{
  "contractName": "TaskContract",
  "abi": [
    {
      "anonymous": false,
      "inputs": [
        {
          "indexed": false,
          "internalType": "address",
          "name": "recepient",
          "type": "address"
        },
        {
          "indexed": false,
          "internalType": "uint256",
          "name": "taskId",
          "type": "uint256"
        }
      ],
      "name": "AddTask",
      "type": "event"
    },
    {
      "anonymous": false,
      "inputs": [
        {
          "indexed": false,
          "internalType": "uint256",
          "name": "taskId",
          "type": "uint256"
        },
        {
          "indexed": false,
          "internalType": "bool",
          "name": "isDeleted",
          "type": "bool"
        }
      ],
      "name": "DeleteTask",
      "type": "event"
    },
    {
      "inputs": [
        {
          "internalType": "string",
          "name": "taskText",
          "type": "string"
        }
      ],
      "name": "addTask",
      "outputs": [],
      "stateMutability": "nonpayable",
      "type": "function"
    },
    {
      "inputs": [],
      "name": "getAllTasks",
      "outputs": [
        {
          "components": [
            {
              "internalType": "uint256",
              "name": "id",
              "type": "uint256"
            },
            {
              "internalType": "string",
              "name": "taskText",
              "type": "string"
            },
            {
              "internalType": "bool",
              "name": "isDeleted",
              "type": "bool"
            }
          ],
          "internalType": "struct TaskContract.Task[]",
          "name": "",
          "type": "tuple[]"
        }
      ],
      "stateMutability": "view",
      "type": "function"
    },
    {
      "inputs": [
        {
          "internalType": "uint256",
          "name": "taskId",
          "type": "uint256"
        }
      ],
      "name": "deleteTask",
      "outputs": [],
      "stateMutability": "nonpayable",
      "type": "function"
    }
  ],
  "bytecode": "0x608060405234801561001057600080fd5b50610ec1806100206000396000f3fe608060405234801561001057600080fd5b50600436106100415760003560e01c8063560f3192146100465780636723856214610062578063779900b41461007e575b600080fd5b610060600480360381019061005b9190610640565b61009c565b005b61007c600480360381019061007791906107b3565b6101ba565b005b6100866102dd565b60405161009391906109b7565b60405180910390f35b803373ffffffffffffffffffffffffffffffffffffffff166001600083815260200190815260200160002060009054906101000a900473ffffffffffffffffffffffffffffffffffffffff1673ffffffffffffffffffffffffffffffffffffffff161461013e576040517f08c379a000000000000000000000000000000000000000000000000000000000815260040161013590610a36565b60405180910390fd5b60016000838154811061015457610153610a56565b5b906000526020600020906003020160020160006101000a81548160ff0219169083151502179055507ff88a35c3d2016c409a46570b994a17b408dbc83c14a03f521512d50b85386d068260016040516101ae929190610aa3565b60405180910390a15050565b6000808054905090506000604051806060016040528083815260200184815260200160001515815250908060018154018082558091505060019003906000526020600020906003020160009091909190915060008201518160000155602082015181600101908161022b9190610cd8565b5060408201518160020160006101000a81548160ff0219169083151502179055505050336001600083815260200190815260200160002060006101000a81548173ffffffffffffffffffffffffffffffffffffffff021916908373ffffffffffffffffffffffffffffffffffffffff1602179055507f1f54e1ba1832d428fbd7e7792beaf62b1fc5a382c207ffd614209c1413e94fda33826040516102d1929190610deb565b60405180910390a15050565b60606000808054905067ffffffffffffffff8111156102ff576102fe610688565b5b60405190808252806020026020018201604052801561033857816020015b6103256105d3565b81526020019060019003908161031d5790505b5090506000805b600080549050811015610519573373ffffffffffffffffffffffffffffffffffffffff166001600083815260200190815260200160002060009054906101000a900473ffffffffffffffffffffffffffffffffffffffff1673ffffffffffffffffffffffffffffffffffffffff161480156103f0575060001515600082815481106103cd576103cc610a56565b5b906000526020600020906003020160020160009054906101000a900460ff161515145b15610506576000818154811061040957610408610a56565b5b90600052602060002090600302016040518060600160405290816000820154815260200160018201805461043c90610afb565b80601f016020809104026020016040519081016040528092919081815260200182805461046890610afb565b80156104b55780601f1061048a576101008083540402835291602001916104b5565b820191906000526020600020905b81548152906001019060200180831161049857829003601f168201915b505050505081526020016002820160009054906101000a900460ff1615151515815250508383815181106104ec576104eb610a56565b5b6020026020010181905250818061050290610e43565b9250505b808061051190610e43565b91505061033f565b5060008167ffffffffffffffff81111561053657610535610688565b5b60405190808252806020026020018201604052801561056f57816020015b61055c6105d3565b8152602001906001900390816105545790505b50905060005b828110156105c9578381815181106105905761058f610a56565b5b60200260200101518282815181106105ab576105aa610a56565b5b602002602001018190525080806105c190610e43565b915050610575565b5080935050505090565b604051806060016040528060008152602001606081526020016000151581525090565b6000604051905090565b600080fd5b600080fd5b6000819050919050565b61061d8161060a565b811461062857600080fd5b50565b60008135905061063a81610614565b92915050565b60006020828403121561065657610655610600565b5b60006106648482850161062b565b91505092915050565b600080fd5b600080fd5b6000601f19601f8301169050919050565b7f4e487b7100000000000000000000000000000000000000000000000000000000600052604160045260246000fd5b6106c082610677565b810181811067ffffffffffffffff821117156106df576106de610688565b5b80604052505050565b60006106f26105f6565b90506106fe82826106b7565b919050565b600067ffffffffffffffff82111561071e5761071d610688565b5b61072782610677565b9050602081019050919050565b82818337600083830152505050565b600061075661075184610703565b6106e8565b90508281526020810184848401111561077257610771610672565b5b61077d848285610734565b509392505050565b600082601f83011261079a5761079961066d565b5b81356107aa848260208601610743565b91505092915050565b6000602082840312156107c9576107c8610600565b5b600082013567ffffffffffffffff8111156107e7576107e6610605565b5b6107f384828501610785565b91505092915050565b600081519050919050565b600082825260208201905092915050565b6000819050602082019050919050565b6108318161060a565b82525050565b600081519050919050565b600082825260208201905092915050565b60005b83811015610871578082015181840152602081019050610856565b60008484015250505050565b600061088882610837565b6108928185610842565b93506108a2818560208601610853565b6108ab81610677565b840191505092915050565b60008115159050919050565b6108cb816108b6565b82525050565b60006060830160008301516108e96000860182610828565b5060208301518482036020860152610901828261087d565b915050604083015161091660408601826108c2565b508091505092915050565b600061092d83836108d1565b905092915050565b6000602082019050919050565b600061094d826107fc565b6109578185610807565b93508360208202850161096985610818565b8060005b858110156109a557848403895281516109868582610921565b945061099183610935565b925060208a0199505060018101905061096d565b50829750879550505050505092915050565b600060208201905081810360008301526109d18184610942565b905092915050565b600082825260208201905092915050565b7f4e6f7420616e206f776e6572207461736b000000000000000000000000000000600082015250565b6000610a206011836109d9565b9150610a2b826109ea565b602082019050919050565b60006020820190508181036000830152610a4f81610a13565b9050919050565b7f4e487b7100000000000000000000000000000000000000000000000000000000600052603260045260246000fd5b610a8e8161060a565b82525050565b610a9d816108b6565b82525050565b6000604082019050610ab86000830185610a85565b610ac56020830184610a94565b9392505050565b7f4e487b7100000000000000000000000000000000000000000000000000000000600052602260045260246000fd5b60006002820490506001821680610b1357607f821691505b602082108103610b2657610b25610acc565b5b50919050565b60008190508160005260206000209050919050565b60006020601f8301049050919050565b600082821b905092915050565b600060088302610b8e7fffffffffffffffffffffffffffffffffffffffffffffffffffffffffffffffff82610b51565b610b988683610b51565b95508019841693508086168417925050509392505050565b6000819050919050565b6000610bd5610bd0610bcb8461060a565b610bb0565b61060a565b9050919050565b6000819050919050565b610bef83610bba565b610c03610bfb82610bdc565b848454610b5e565b825550505050565b600090565b610c18610c0b565b610c23818484610be6565b505050565b5b81811015610c4757610c3c600082610c10565b600181019050610c29565b5050565b601f821115610c8c57610c5d81610b2c565b610c6684610b41565b81016020851015610c75578190505b610c89610c8185610b41565b830182610c28565b50505b505050565b600082821c905092915050565b6000610caf60001984600802610c91565b1980831691505092915050565b6000610cc88383610c9e565b9150826002028217905092915050565b610ce182610837565b67ffffffffffffffff811115610cfa57610cf9610688565b5b610d048254610afb565b610d0f828285610c4b565b600060209050601f831160018114610d425760008415610d30578287015190505b610d3a8582610cbc565b865550610da2565b601f198416610d5086610b2c565b60005b82811015610d7857848901518255600182019150602085019450602081019050610d53565b86831015610d955784890151610d91601f891682610c9e565b8355505b6001600288020188555050505b505050505050565b600073ffffffffffffffffffffffffffffffffffffffff82169050919050565b6000610dd582610daa565b9050919050565b610de581610dca565b82525050565b6000604082019050610e006000830185610ddc565b610e0d6020830184610a85565b9392505050565b7f4e487b7100000000000000000000000000000000000000000000000000000000600052601160045260246000fd5b6000610e4e8261060a565b91507fffffffffffffffffffffffffffffffffffffffffffffffffffffffffffffffff8203610e8057610e7f610e14565b5b60018201905091905056fea26469706673582212208d7f420c25dd429bb1a64baea0b812afd3e4bbb328fadef1c947d78425344ccf64736f6c63430008100033",
  "immutableReferences": {},
  "source": "// SPDX-License-Identifier: MIT\npragma solidity >=0.8;\n\ncontract TaskContract {\n    event AddTask(address recepient, uint256 taskId);\n    event DeleteTask(uint256 taskId, bool isDeleted);\n\n    struct Task {\n        uint256 id;\n        string taskText;\n        bool isDeleted;\n    }\n\n    Task[] private tasks;\n    mapping(uint256 => address) taskToOwner;\n\n    modifier onlyOwner(uint256 index) {\n        require(taskToOwner[index] == msg.sender, \"Not an owner task\");\n        _;\n    }\n\n    function addTask(string memory taskText) external {\n        uint256 taskId = tasks.length;\n        tasks.push(Task(taskId, taskText, false));\n        taskToOwner[taskId] = msg.sender;\n        emit AddTask(msg.sender, taskId);\n    }\n\n    function getAllTasks() external view returns (Task[] memory) {\n        Task[] memory temp = new Task[](tasks.length);\n        uint256 counter;\n\n        for (uint256 i; i < tasks.length; i++) {\n            if (taskToOwner[i] == msg.sender && tasks[i].isDeleted == false) {\n                temp[counter] = tasks[i];\n                counter++;\n            }\n        }\n\n        Task[] memory result = new Task[](counter);\n\n        for (uint256 i; i < counter; i++) {\n            result[i] = temp[i];\n        }\n\n        return result;\n    }\n\n    function deleteTask(uint256 taskId) external onlyOwner(taskId) {\n        tasks[taskId].isDeleted = true;\n        emit DeleteTask(taskId, true);\n    }\n}\n",
  "sourcePath": "/Users/siarhei_hamanovich/Repo/Solidity-Todo-List/backend/contracts/TaskContract.sol",
  "compiler": {
    "name": "solc",
    "version": "0.8.16+commit.07a7930e.Emscripten.clang"
  },
  "schemaVersion": "3.4.9",
  "updatedAt": "2022-09-14T12:09:58.093Z",
  "devdoc": {
    "kind": "dev",
    "methods": {},
    "version": 1
  },
  "userdoc": {
    "kind": "user",
    "methods": {},
    "version": 1
  }
}